{
  "contractName": "CoinCollector",
  "abi": [
    {
      "inputs": [],
      "stateMutability": "nonpayable",
      "type": "constructor"
    },
    {
      "anonymous": false,
      "inputs": [
        {
          "indexed": false,
          "internalType": "address",
          "name": "coin",
          "type": "address"
        },
        {
          "indexed": false,
          "internalType": "uint256",
          "name": "time",
          "type": "uint256"
        }
      ],
      "name": "CoinCollected",
      "type": "event"
    },
    {
      "inputs": [],
      "name": "admin",
      "outputs": [
        {
          "internalType": "address",
          "name": "",
          "type": "address"
        }
      ],
      "stateMutability": "view",
      "type": "function"
    },
    {
      "inputs": [],
      "name": "token",
      "outputs": [
        {
          "internalType": "contract Token",
          "name": "",
          "type": "address"
        }
      ],
      "stateMutability": "view",
      "type": "function"
    },
    {
      "inputs": [
        {
          "internalType": "address",
          "name": "coin",
          "type": "address"
        }
      ],
      "name": "collectCoin",
      "outputs": [],
      "stateMutability": "nonpayable",
      "type": "function"
    },
    {
      "inputs": [
        {
          "internalType": "address",
          "name": "coin",
          "type": "address"
        }
      ],
      "name": "isCollected",
      "outputs": [
        {
          "internalType": "bool",
          "name": "",
          "type": "bool"
        }
      ],
      "stateMutability": "view",
      "type": "function"
    }
  ],
  "bytecode": "0x608060405234801561001057600080fd5b50336000806101000a81548173ffffffffffffffffffffffffffffffffffffffff021916908373ffffffffffffffffffffffffffffffffffffffff160217905550610788806100606000396000f3fe608060405234801561001057600080fd5b5060043610610069576000357c01000000000000000000000000000000000000000000000000000000009004806380a53d9d1461006e5780639824aab51461008a578063f851a440146100ba578063fc0c546a146100d8575b600080fd5b610088600480360381019061008391906104a1565b6100f6565b005b6100a4600480360381019061009f91906104a1565b6103d7565b6040516100b1919061059e565b60405180910390f35b6100c261042d565b6040516100cf919061055a565b60405180910390f35b6100e0610451565b6040516100ed91906105b9565b60405180910390f35b80600260006101000a81548173ffffffffffffffffffffffffffffffffffffffff021916908373ffffffffffffffffffffffffffffffffffffffff160217905550620186a042600260009054906101000a900473ffffffffffffffffffffffffffffffffffffffff1673ffffffffffffffffffffffffffffffffffffffff16636594e87d6040518163ffffffff167c010000000000000000000000000000000000000000000000000000000002815260040160206040518083038186803b1580156101c057600080fd5b505afa1580156101d4573d6000803e3d6000fd5b505050506040513d601f19601f820116820180604052508101906101f891906104ce565b6102029190610605565b11610242576040517f08c379a0000000000000000000000000000000000000000000000000000000008152600401610239906105d4565b60405180910390fd5b64174876e800600260009054906101000a900473ffffffffffffffffffffffffffffffffffffffff1673ffffffffffffffffffffffffffffffffffffffff166318160ddd6040518163ffffffff167c010000000000000000000000000000000000000000000000000000000002815260040160206040518083038186803b1580156102cc57600080fd5b505afa1580156102e0573d6000803e3d6000fd5b505050506040513d601f19601f8201168201806040525081019061030491906104ce565b11610344576040517f08c379a000000000000000000000000000000000000000000000000000000000815260040161033b906105d4565b60405180910390fd5b60018060008373ffffffffffffffffffffffffffffffffffffffff1673ffffffffffffffffffffffffffffffffffffffff16815260200190815260200160002060006101000a81548160ff0219169083151502179055507f6fde49160691b1dc639552a29f5d169ce8a5eaa9a35dceab35080c69b74e163281426040516103cc929190610575565b60405180910390a150565b6000600160008373ffffffffffffffffffffffffffffffffffffffff1673ffffffffffffffffffffffffffffffffffffffff16815260200190815260200160002060009054906101000a900460ff169050919050565b60008054906101000a900473ffffffffffffffffffffffffffffffffffffffff1681565b600260009054906101000a900473ffffffffffffffffffffffffffffffffffffffff1681565b60008135905061048681610724565b92915050565b60008151905061049b8161073b565b92915050565b6000602082840312156104b7576104b66106f6565b5b60006104c584828501610477565b91505092915050565b6000602082840312156104e4576104e36106f6565b5b60006104f28482850161048c565b91505092915050565b6105048161065b565b82525050565b6105138161066d565b82525050565b610522816106a3565b82525050565b60006105356010836105f4565b9150610540826106fb565b602082019050919050565b61055481610699565b82525050565b600060208201905061056f60008301846104fb565b92915050565b600060408201905061058a60008301856104fb565b610597602083018461054b565b9392505050565b60006020820190506105b3600083018461050a565b92915050565b60006020820190506105ce6000830184610519565b92915050565b600060208201905081810360008301526105ed81610528565b9050919050565b600082825260208201905092915050565b600061061082610699565b915061061b83610699565b9250827fffffffffffffffffffffffffffffffffffffffffffffffffffffffffffffffff038211156106505761064f6106c7565b5b828201905092915050565b600061066682610679565b9050919050565b60008115159050919050565b600073ffffffffffffffffffffffffffffffffffffffff82169050919050565b6000819050919050565b60006106ae826106b5565b9050919050565b60006106c082610679565b9050919050565b7f4e487b7100000000000000000000000000000000000000000000000000000000600052601160045260246000fd5b600080fd5b7f6974206d696768742062652066616b6500000000000000000000000000000000600082015250565b61072d8161065b565b811461073857600080fd5b50565b61074481610699565b811461074f57600080fd5b5056fea2646970667358221220a39b25fce0d53fd1a92de9daed8b27bdb70eb0bb5bee098cc8e12b9cdab42aae64736f6c63430008060033",
  "immutableReferences": {},
  "source": "//SPDX-License-Identifier: UNLICENSED\npragma solidity ^0.8.6;\nimport \"./Token.sol\";\n\ncontract CoinCollector{\n\n    address public admin;\n    mapping(address=>bool) coinsCollection;\n    event CoinCollected(address coin, uint time);\n    Token public token;\n    constructor() {\n        admin = msg.sender; }\n    \n    function collectCoin(address coin) public {\n\n        token = Token(coin);\n        require(token.whenDeployed() + block.timestamp > 100000,\"it might be fake\");\n        require(token.totalSupply()>100000000000, \"it might be fake\");\n        coinsCollection[coin] = true;\n        emit CoinCollected(coin, block.timestamp);\n    }\n\n    function isCollected(address coin) view public returns(bool) {\n        return coinsCollection[coin];\n        \n    }\n}",
  "sourcePath": "/home/aditya/Desktop/shardings_task/contracts/CoinCollector.sol",
  "compiler": {
    "name": "solc",
    "version": "0.8.6+commit.11564f7e.Emscripten.clang"
  },
  "schemaVersion": "3.4.1",
  "updatedAt": "2021-07-30T04:51:21.130Z",
  "devdoc": {
    "kind": "dev",
    "methods": {},
    "version": 1
  },
  "userdoc": {
    "kind": "user",
    "methods": {},
    "version": 1
  }
}